:100000000C943B000C9458000C9458000C9458002D
:100010000C9458000C9458000C9458000C94580000
:100020000C9458000C9458000C9458000C945800F0
:100030000C9458000C9458000C9458000C945800E0
:100040000C9458000C9458000C9458000C945800D0
:100050000C9458000C9458000C9458000C945800C0
:100060000C9458000C945800666C6173682073748B
:1000700072696E67000011241FBECFEFD8E0DEBFAB
:10008000CDBF11E0A0E0B1E0E4E2F3E102C00590F1
:100090000D92A238B107D9F721E0A2E8B1E001C082
:1000A0001D92A838B207E1F70E946C000C949009E9
:1000B0000C9400009091C00095FFFCCF8093C60087
:1000C00090E080E00895FC0180819181FB01208116
:1000D0003181821B930B0895CF93DF93CDB7DEB7A9
:1000E000C85BD1090FB6F894DEBF0FBECDBF10922A
:1000F000C50088E08093C4001092C00088E180931E
:10010000C10086E08093C2008BE091E0909385016E
:100110008093840180910A0130910A0120910A01A3
:100120006DE00E9474021F929F93832F67E00E94EC
:1001300074021F928F9383E0289F900111243F93B4
:100140002F9389E191E09F938F930E9493062091D2
:1001500008013091090180910801909109010091F5
:10016000080110910901E0910801F091090163E093
:10017000359527956A95E1F73F932F936DE070E0F1
:100180000E9480029F938F93C80167E070E00E94F5
:1001900080027F936F93CF01880F991F8E0F9F1F4F
:1001A0009F938F9386E291E09F938F930E94930693
:1001B0006091040170910501809106019091070101
:1001C0008090040190900501A0900601B090070175
:1001D000C0900401D0900501E0900601F090070165
:1001E00025EE33E040E050E00E9494029F938F930D
:1001F0007F936F93C501B40128EE33E040E050E0F7
:100200000E9494025F934F933F932F93A7E0B0E037
:10021000A70196010E94D5029F938F937F936F93BE
:1002200087E391E09F938F930E949306609104016E
:100230007091050180910601909107010FB6F89425
:10024000DEBF0FBECDBF2DEF3FEF4FEF5FEF0E9440
:10025000B6025F934F933F932F9388E491E09F936F
:100260008F930E949306C0900001D0900101E0900E
:100270000201F09003018090000190900101A09094
:100280000201B09003016091000170910101809121
:1002900002019091030120910001309101014091F0
:1002A0000201509103010E94690420E030E44CE116
:1002B00056E40E9469040E94E2037F936F9320E05A
:1002C00030E040E250E4C701B6010E9469046B01CE
:1002D0007C01A501940160E070E080E89FE30E944A
:1002E00070039B01AC01C701B6010E94040320E02A
:1002F00030E04AE754E40E9469040E94E2037F93DD
:100300006F9381E591E09F938F930E949306FE0186
:1003100031960FB6F894DEBF0FBECDBFDF018BE084
:100320008D938B5D8B34E1F79F01205C3F4F8FEF06
:100330009FEFDC01E217F30709F0B7C080959095B5
:10034000A095B095BF93AF939F938F938EE591E067
:100350009F938F930E9493068E010F581F4FF801B1
:10036000B8960F900F900F900F900F900F9078010C
:1003700027E030E095E5A92E92E6B92E48EEC42E8E
:1003800043E0D42E2A9DC0012B9D900D3A9D900DE7
:1003900011249C01275E394CC901B6010E948002DC
:1003A000D7018D939D937D01AE17BF0759F723E6C3
:1003B00030E042E050E064E170E0C8010E941F05B7
:1003C00089E6C82E81E0D82EF801808191810E5FE8
:1003D0001F4F9F938F93DF92CF920E9493060F90AF
:1003E0000F900F900F90E016F10671F78AE090E001
:1003F0000E94A9068E0107561F4F68E670E0C801EB
:100400000E948C06F80101900020E9F73197E01B6B
:10041000F10BFF93EF931F930F938DE691E09F9362
:100420008F930E94930623961FAE1EAE239781E002
:1004300090E025969FAF8EAF2597FE01EF5BFF4FB3
:100440009F01245D3F4F0F900F900F900F900F90E2
:100450000F90DF01329612968D919C9113974D91DA
:100460005C91840F951F93838283E217F30789F7CA
:10047000E1968FADE1978F93E0968FADE0978F93E4
:1004800084E791E09F938F930E9493068CE791E01D
:100490000E94B0060F900F900F900F908091C000B7
:1004A00086FFFCCFF8948895FECF4191842748E0E1
:1004B0006C017D01F694E794D794C79481709927D5
:1004C000AA27BB27B095A095909581959F4FAF4FD8
:1004D000BF4F80729378A87BBD7E8C259D25AE256D
:1004E000BF25415029F726CF991B79E004C0991FF9
:1004F000961708F0961B881F7A95C9F7809508957E
:1005000097FB072E16F4009407D077FD09D00E94C0
:10051000E00207FC05D03EF4909581959F4F089529
:10052000709561957F4F0895A1E21A2EAA1BBB1BFF
:10053000FD010DC0AA1FBB1FEE1FFF1FA217B307AF
:10054000E407F50720F0A21BB30BE40BF50B661FC5
:10055000771F881F991F1A9469F760957095809589
:1005600090959B01AC01BD01CF010895052E97FB2D
:100570001EF400940E94CD0257FD07D00E94940201
:1005800007FC03D04EF40C94CD0250954095309565
:1005900021953F4F4F4F5F4F0895909580957095EF
:1005A00061957F4F8F4F9F4F08950E94F402A59F42
:1005B000900DB49F900DA49F800D911D112408955E
:1005C000AA1BBB1B51E107C0AA1FBB1FA617B70779
:1005D00010F0A61BB70B881F991F5A95A9F7809595
:1005E0009095BC01CD010895A29FB001B39FC001B9
:1005F000A39F700D811D1124911DB29F700D811D4F
:100600001124911D08955058BB27AA270E941B034F
:100610000C942F040E94210438F00E94280420F03A
:1006200039F49F3F19F426F40C941E040EF4E0955F
:10063000E7FB0C941804E92F0E94400458F3BA1702
:10064000620773078407950720F079F4A6F50C94E8
:1006500062040EF4E0950B2EBA2FA02D0B01B90108
:1006600090010C01CA01A0011124FF27591B99F028
:10067000593F50F4503E68F11A16F040A22F232F34
:10068000342F4427585FF3CF469537952795A79584
:10069000F0405395C9F77EF41F16BA0B620B730B2B
:1006A000840BBAF09150A1F0FF0FBB1F661F771F9C
:1006B000881FC2F70EC0BA0F621F731F841F48F451
:1006C000879577956795B795F7959E3F08F0B0CFDA
:1006D0009395880F08F09927EE0F979587950895C1
:1006E0000E9484030C942F040E94280458F00E9456
:1006F000210440F029F45F3F29F00C9418045111B3
:100700000C9463040C941E040E94400468F3992323
:10071000B1F3552391F3951B550BBB27AA276217FD
:100720007307840738F09F5F5F4F220F331F441F0A
:10073000AA1FA9F335D00E2E3AF0E0E832D091503E
:100740005040E695001CCAF72BD0FE2F29D0660F2B
:10075000771F881FBB1F261737074807AB07B0E86E
:1007600009F0BB0B802DBF01FF2793585F4F3AF074
:100770009E3F510578F00C9418040C9463045F3F7D
:10078000E4F3983ED4F3869577956795B795F795FA
:100790009F5FC9F7880F911D9695879597F90895E2
:1007A000E1E0660F771F881FBB1F6217730784077E
:1007B000BA0720F0621B730B840BBA0BEE1F88F78D
:1007C000E09508950E94E9036894B1110C946304C4
:1007D00008950E94480488F09F5798F0B92F9927F0
:1007E000B751B0F0E1F0660F771F881F991F1AF01C
:1007F000BA95C9F714C0B13091F00E946204B1E01B
:1008000008950C946204672F782F8827B85F39F019
:10081000B93FCCF3869577956795B395D9F73EF4B4
:1008200090958095709561957F4F8F4F9F4F08955C
:1008300097F99F6780E870E060E008959FEF80EC93
:10084000089500240A941616170618060906089536
:1008500000240A9412161306140605060895092E9C
:100860000394000C11F4882352F0BB0F40F4BF2B0B
:1008700011F460FF04C06F5F7F4F8F4F9F4F08954B
:1008800057FD9058440F551F59F05F3F71F0479541
:10089000880F97FB991F61F09F3F79F08795089526
:1008A000121613061406551FF2CF4695F1DF08C045
:1008B000161617061806991FF1CF86957105610562
:1008C00008940895E894BB2766277727CB0197F90A
:1008D00008950E947C040C942F040E94210438F097
:1008E0000E94280420F0952311F00C9418040C9415
:1008F0001E0411240C9463040E94400470F3959F1D
:10090000C1F3950F50E0551F629FF001729FBB2706
:10091000F00DB11D639FAA27F00DB11DAA1F649FA2
:100920006627B00DA11D661F829F2227B00DA11D55
:10093000621F739FB00DA11D621F839FA00D611DDB
:10094000221F749F3327A00D611D231F849F600DFC
:10095000211D822F762F6A2F11249F5750409AF025
:10096000F1F088234AF0EE0FFF1FBB1F661F771FB1
:10097000881F91505040A9F79E3F510580F00C947C
:1009800018040C9463045F3FE4F3983ED4F3869517
:1009900077956795B795F795E7959F5FC1F7FE2B1C
:1009A000880F911D9695879597F90895CF93DF93BA
:1009B000DC012D91FB013191EC013883EB0128839F
:1009C00041505109CD01BF01141615068CF3DF917A
:1009D000CF910895B0E0A0E0E0EFF4E00C9463095B
:1009E0006C01D62FC72F8A017901F9010995B80149
:1009F00097FF15C08D2F9C2FF701099597FD08C013
:100A0000B801C601F701099597FD16C0DC2DCD2D63
:100A10008D2F9C2FCDB7DEB7E8E00C947F098D2F8A
:100A20009C2FF70109951816190694F3B801C60111
:100A3000F701099597FDEACFD02FC12FE9CFA8E0A4
:100A4000B0E0E5E2F5E00C9459098C0158874F833A
:100A500059019A013195219531093E832D836F808B
:100A60007884600E711E6730710578F58F819885E6
:100A7000689F6001699FD00C789FD00C1124C00E34
:100A8000D11E6C147D0420F02896E2E10C947509C7
:100A9000730113C047012F813885821A930AB70169
:100AA000C401F50109951816190654F44F815885AB
:100AB000B401C7010E94D60474010E151F0550F33E
:100AC000EF81F8856E0E7F1EDCCFCB019695879562
:100AD0002F813885829F6001839FD00C929FD00C1C
:100AE0001124C00ED11ECB010197829F1001839F5C
:100AF000300C929F300C11247801E20CF31C67300B
:100B0000710509F442C0C701280169327105B0F1CD
:100B100083E0769567958A95E1F7629F4001639F30
:100B2000900C729F900C1124C401880F991F9A8316
:100B30008983AC01400F511FB801680D791D9501E3
:100B4000C8010E94EA042C01A601480D591D919488
:100B5000819491089501B601C601880D991D0E94E6
:100B6000EA046C01B701680D791D9501A701C70161
:100B7000E981FA818E1B9F0B0E94EA049501AC016A
:100B8000B601C2010E94EA046C014F815885B6018A
:100B9000C8010E94D6044301630127011A82198209
:100BA000EC14FD0408F446C0B801C601F50109952E
:100BB0001816190654F1892B71F44F815885B60126
:100BC000C3010E94D6042F813885620E731E81E016
:100BD00090E09A838983EF81F885CE0EDF1EE0CF07
:100BE000892B71F44F815885B201C7010E94D60448
:100BF0002D813E81420E531E81E090E09A838983CD
:100C0000EB80FC80EC14FD04A8F0B801C701F501ED
:100C100009952D813E812E0D3F1D3C832B8397FF2F
:100C2000DFCF4F815885B701C6010E94D604EB8003
:100C3000FC80CDCFEF81F8852E0E3F1E200E311E99
:100C400029813A81232B09F58214930408F01CCFE3
:100C5000740113C06701EF81F885CE1ADF0AB7016E
:100C6000C601F50109951816190654F44F815885E7
:100C7000B601C7010E94D60476010E151F0550F378
:100C80008F819885880E991EDFCF460186189708B8
:100C9000A301401B510B841695060CF4A4011416F5
:100CA000150634F4B601641B750BC8010E94D60406
:100CB00092012E193F097901A101441955098F812B
:100CC0009885481B590B2417350708F4A9011416F9
:100CD000150634F4B101641B750BC6010E94D604DD
:100CE000EF81F885E815F90548F4C401BF010E94B9
:100CF000E0029501AF01C8010E941F052F813885D0
:100D00002E153F0508F0C0CE81010E191F09C7013D
:100D1000B9010E94E002A3CEFB01DC0105900D9217
:100D20000020E1F70895B0E0A0E0E9E9F6E00C94D6
:100D30006909AE014B5F5F4FFA0161917191AF019B
:100D400080918401909185010E94DB06E2E00C9481
:100D5000850960918401709185010E94CB080895F6
:100D60000F931F93CF93DF93E0918401F09185015E
:100D70002381EC0110E000E021FD08C00FEF1FEF20
:100D800014C00995892B11F00FEF1FEF8991609125
:100D9000840170918501DB011896ED91FC91811120
:100DA000F0CF8AE00995892B49F7C801DF91CF91EF
:100DB0001F910F910895ABE0B0E0E1EEF6E00C94E6
:100DC00059097C013B018A01FC011782168283814B
:100DD00081FFC8C1CE0101965C01F7019381F30147
:100DE00093FD859193FF81913F01882309F453C1BD
:100DF000853239F493FD859193FF81913F018532CE
:100E000029F4B70190E00E94CB08E7CF912C212C68
:100E1000312CFFE1F31538F08B3211F190F4803270
:100E200009F1833229F137FC3CC020ED280F2A302C
:100E300050F536FE20C08AE0989E200D1124922E97
:100E400006C08D3291F0803371F7689430F8F30169
:100E500093FD859193FF81913F018111DACF21C0EC
:100E6000689431F8689432F8F2CF689433F8EFCF91
:100E7000689434F8ECCFEAE02E9E200D1124222E47
:100E8000689435F8E4CF8E3229F436FC04C16894B6
:100E900036F8DDCF8C3619F4689437F8D8CF883619
:100EA000B1F2982F9F7D95549330E0F08336A1F1F5
:100EB0008337C1F1833509F063C02801F2E04F0E9A
:100EC000511CF801C080D180692D70E036FC02C051
:100ED0006FEF7FEFC6010E94B5084C01689437F8A8
:100EE00082010AC00C5F1F4FFFE3F98388248394BB
:100EF000912C6501E89437F833FE2DC0522C8114F3
:100F0000910471F5552009F468CFB70180E290E0B3
:100F10000E94CB085A94F6CFF801808189830E5F36
:100F20001F4FE4CF2801F2E04F0E511CF801C080A2
:100F3000D180692D70E036FC02C06FEF7FEFC601F3
:100F40000E94C0084C018201D5CFB70180E290E039
:100F50000E94CB082A942814190409F0B0F7CECFC8
:100F6000F60137FC859137FE81916F01B70190E062
:100F70000E94CB0851105A94F1E08F1A9108BFCF0C
:100F8000843619F0893609F077C0F80137FE6BC056
:100F900060817181828193810C5F1F4FF32DFF76F9
:100FA0003F2E97FF09C090958095709561957F4F72
:100FB0008F4F9F4F689437F82AE030E0A5010E94D8
:100FC000FB08C82ECA188C2C432C36FE0CC0E894A3
:100FD00040F8C91440F434FE05C032FC03C0F32DC0
:100FE000FE7E4F2E892C44FE95C0FE01EC0DF11DB6
:100FF0008081803309F087C0242D297E422E842DE4
:101000008870582E43FC95C040FE8FC09C2C8214E3
:1010100018F42C0C922C981844FE91C0B70180E370
:1010200090E00E94CB0842FE09C088E790E041FEB4
:1010300002C088E590E0B7010E94CB08C91408F40B
:101040008AC0CA94D12C9FEFC91AD90ACA0CDB1CDA
:10105000F60182916F01B70190E00E94CB08AC14B9
:10106000BD04B1F74FCF60817181072E000C880B52
:10107000990B0E5F1F4F92CFD32CE894D4F82AE03F
:1010800030E0853739F1232D297FD22E8F3601F1BB
:1010900048F48835A9F0F701868197812B96E2E123
:1010A0000C947509803749F08837A9F7D4FE02C03F
:1010B0006894D2F820E130E00DC06894D4F8F6CFFF
:1010C00034FE03C0822F8660D82E20E132E002C0B9
:1010D00028E030E0F801D7FE0FC060817181828185
:1010E00093810C5F1F4FA5010E94FB08C82ECA18F0
:1010F0003D2CE89437F867CF6081718190E080E003
:101100000E5F1F4FF0CF42FC02C0839478CF8394D0
:10111000839475CF842D867809F471CFF6CFB7010B
:1011200080E290E00E94CB0883948214C0F3512C9B
:1011300073CF522C5818821408F46ECFF8CF842D38
:10114000867809F47BCF8BE241FE80E247FC8DE29A
:10115000B70190E071CFB70180E390E00E94CB0827
:101160009A946CCF8FEF9FEF99CFFC01059061505F
:1011700070400110D8F7809590958E0F9F1F0895AD
:10118000FC016150704001900110D8F78095909556
:101190008E0F9F1F08950F931F93CF93DF93182FE8
:1011A000092FEB018B8181FD09C01FEF0FEF812F0C
:1011B000902FDF91CF911F910F91089582FF14C05E
:1011C0002E813F818C819D81281739073CF4E8816D
:1011D000F981CF0101969983888310838E819F8145
:1011E00001969F838E83E3CFE885F985812F09954A
:1011F000892BA1F3DACFFA01AA27283051F1203147
:1012000081F1E8946F936E7F6E5F7F4F8F4F9F4F9A
:10121000AF4FB1E03ED0B4E03CD0670F781F891FDC
:101220009A1FA11D680F791F8A1F911DA11D6A0FAA
:10123000711D811D911DA11D20D009F468943F915D
:101240002AE0269F11243019305D3193DEF6CF015C
:101250000895462F4770405D4193B3E00FD0C9F722
:10126000F6CF462F4F70405D4A3318F0495D31FD8F
:101270004052419302D0A9F7EACFB4E0A6959795E2
:10128000879577956795BA95C9F7009761057105B8
:1012900008959B01AC010A2E069457954795379502
:1012A0002795BA95C9F7620F731F841F951FA01D5C
:1012B00008952F923F924F925F926F927F928F92FA
:1012C0009F92AF92BF92CF92DF92EF92FF920F93D5
:1012D0001F93CF93DF93CDB7DEB7CA1BDB0B0FB6DF
:1012E000F894DEBF0FBECDBF09942A88398848889C
:1012F0005F846E847D848C849B84AA84B984C88432
:10130000DF80EE80FD800C811B81AA81B981CE0F28
:10131000D11D0FB6F894DEBF0FBECDBFED0108950D
:04132000F894FFCF6F
:10132400D00F4940015ED0B2C7CFC8000000020010
:101334000000005A000000000075382025752025A3
:10134400752025750A00693136202564202564201E
:1013540025642025640A0075333220256C75202508
:101364006C7520256C750A0073333220256C640A71
:1013740000666C6F61742025642025640A00637222
:1013840063202530386C780A0025642000257320FA
:1013940025750A006669622025750A00646F6E650A
:0213A400000047
:00000001FF
