:100000000C9434000C94A1000C9451000C94B80092
:100010000C9451000C9451000C9451000C9451001C
:100020000C9451000C948A000C9451000C947300B1
:100030000C9451000C9451000C9451000C945100FC
:100040000C945C000C9451000C9451000C945100E1
:100050000C9451000C9451000C9451000C945100DC
:100060000C9451000C94510011241FBECFEFD8E026
:10007000DEBFCDBF11E0A0E0B1E0E0E5FFE002C0EF
:1000800005900D92A438B107D9F721E0A4E8B1E0BA
:1000900001C01D92A839B207E1F70E94CF000C946D
:1000A000A6070C9400009091C00095FFFCCF8093B0
:1000B000C60090E080E008951F920F920FB60F9255
:1000C00011248F939F9380918C0190918D010196C3
:1000D00090938D0180938C019F918F910F900FBE13
:1000E0000F901F9018951F920F920FB60F92112428
:1000F0008F939F93809186019091870101969093B1
:100100008701809386019F918F910F900FBE0F9072
:100110001F9018951F920F920FB60F9211248F9374
:100120009F93809184019091850101969093850120
:10013000809384019F918F910F900FBE0F901F901D
:1001400018951F920F920FB60F9211248F939F93C1
:1001500080918E0190918F01019690938F018093F1
:100160008E019F918F910F900FBE0F901F90189549
:100170001F920F920FB60F9211248F939F9380912D
:10018000900190919101019690939101809390013B
:100190009F918F910F900FBE0F901F901895CF9346
:1001A000DF9300D000D000D01F92CDB7DEB7109201
:1001B000C50088E08093C4001092C00088E180935D
:1001C000C10086E08093C20080E091E090939501A9
:1001D000809394011092800081E08093810085E1FA
:1001E0009DECABE5B7E08093880190938901A093E3
:1001F0008A01B0938B0110928500109284001F82B7
:100200008F81843608F469C18091840090918500C3
:100210009F938F938EE091E09F938F930E947F0432
:10022000109285001092840060918801709189017C
:1002300080918A0190918B01809088019090890132
:10024000A0908A01B0908B0127E030E040E050E0C0
:100250000E94770269017A01C501B4012DE030E006
:1002600040E050E00E947702C60ED71EE81EF91E3D
:10027000C0928801D0928901E0928A01F0928B01AC
:1002800080918400909185009F938F9387E191E006
:100290009F938F930E947F04109285001092840098
:1002A000209188013091890140918A0150918B0100
:1002B000A9E3B0E30E9499026093880170938901D9
:1002C00080938A0190938B018091840090918500A6
:1002D0009F938F938FE191E09F938F930E947F0470
:1002E000109285001092840086EB93EFADE9BFE396
:1002F00089839A83AB83BC8369817A818B819C815A
:1003000029813A814B815C810E94120423E333E30B
:1003100043E550E40E94200320E030E040E050E458
:100320000E94B40269837A838B839C8369817A817A
:100330008B819C8120E030E04AE754E40E94120463
:100340000E949203609388017093890180938A01CF
:1003500090938B0180918400909185009F938F935F
:1003600087E291E09F938F930E947F041092850013
:10037000109284008FE891E00197F1F700C000002F
:1003800080918400909185009F938F9381E391E009
:100390009F938F930E947F0483E084BD85BD81E09D
:1003A00080936E001092810010928500109284005C
:1003B000109280009AE0909381002FEC37E0309308
:1003C00089002093880092E090936F001092B00013
:1003D00027E02093B10080937000909369008DBB5B
:1003E000529A209A8093680080936B0078940FB69D
:1003F000F894DEBF0FBECDBF8AE091E05A9A5A98BA
:1004000093B98150D9F71E821D828D819E818032E1
:100410009E4408F466C0F894B091B200A6B5E0918D
:100420009001F091910160918E0170918F01409146
:10043000840150918501209186013091870180913E
:100440008C0190918D011F92BF931F92AF93FF93E8
:10045000EF937F936F935F934F933F932F939F936C
:100460008F938BE391E09F938F930E947F0465EAC3
:100470008AE090E00E944C076FEE7EEB84E190E012
:100480000E945A078BE090E00E943E07D82E84E13C
:1004900090E00E944607F82EE92E8AE090E00E9444
:1004A0003E071F92DF92EF92FF921F928F9381E798
:1004B00091E09F938F930E947F048EE791E00E94CA
:1004C00095040FB6F894DEBF0FBECDBF8091C0007B
:1004D00086FFFCCFF8948895FECF8F818F5F8F8346
:1004E0008FCE8D819E8101969E838D838ECFA1E2DA
:1004F0001A2EAA1BBB1BFD010DC0AA1FBB1FEE1F9E
:10050000FF1FA217B307E407F50720F0A21BB30BE8
:10051000E40BF50B661F771F881F991F1A9469F764
:1005200060957095809590959B01AC01BD01CF01C0
:1005300008950E94A402A59F900DB49F900DA49FC2
:10054000800D911D11240895A29FB001B39FC00199
:10055000A39F700D811D1124911DB29F700D811DEF
:100560001124911D08955058BB27AA270E94CB0241
:100570000C94D8030E94CA0338F00E94D10320F0E3
:1005800039F49F3F19F426F40C94C7030EF4E09558
:10059000E7FB0C94C103E92F0E94E90358F3BA1753
:1005A000620773078407950720F079F4A6F50C9489
:1005B0000B040EF4E0950B2EBA2FA02D0B01B90100
:1005C00090010C01CA01A0011124FF27591B99F0C9
:1005D000593F50F4503E68F11A16F040A22F232FD5
:1005E000342F4427585FF3CF469537952795A79525
:1005F000F0405395C9F77EF41F16BA0B620B730BCC
:10060000840BBAF09150A1F0FF0FBB1F661F771F3C
:10061000881FC2F70EC0BA0F621F731F841F48F4F1
:10062000879577956795B795F7959E3F08F0B0CF7A
:100630009395880F08F09927EE0F97958795089561
:100640000E9434030C94D8030E94D10358F00E94F6
:10065000CA0340F029F45F3F29F00C94C103511103
:100660000C940C040C94C7030E94E90368F39923CB
:10067000B1F3552391F3951B550BBB27AA2762179E
:100680007307840738F09F5F5F4F220F331F441FAB
:10069000AA1FA9F335D00E2E3AF0E0E832D09150DF
:1006A0005040E695001CCAF72BD0FE2F29D0660FCC
:1006B000771F881FBB1F261737074807AB07B0E80F
:1006C00009F0BB0B802DBF01FF2793585F4F3AF015
:1006D0009E3F510578F00C94C1030C940C045F3FCD
:1006E000E4F3983ED4F3869577956795B795F7959B
:1006F0009F5FC9F7880F911D9695879597F9089583
:10070000E1E0660F771F881FBB1F6217730784071E
:10071000BA0720F0621B730B840BBA0BEE1F88F72D
:10072000E09508950E94F10388F09F5798F0B92F43
:100730009927B751B0F0E1F0660F771F881F991F16
:100740001AF0BA95C9F714C0B13091F00E940B04A9
:10075000B1E008950C940B04672F782F8827B85FB9
:1007600039F0B93FCCF3869577956795B395D9F76E
:100770003EF490958095709561957F4F8F4F9F4F78
:10078000089597F99F6780E870E060E008959FEF13
:1007900080EC089500240A94161617061806090618
:1007A000089500240A9412161306140605060895E7
:1007B000092E0394000C11F4882352F0BB0F40F46F
:1007C000BF2B11F460FF04C06F5F7F4F8F4F9F4FAF
:1007D000089557FD9058440F551F59F05F3F71F031
:1007E0004795880F97FB991F61F09F3F79F0879598
:1007F0000895121613061406551FF2CF4695F1DF21
:1008000008C0161617061806991FF1CF86957105B0
:10081000610508940895E894BB2766277727CB01E4
:1008200097F908950E9425040C94D8030E94CA03E6
:1008300038F00E94D10320F0952311F00C94C103ED
:100840000C94C70311240C940C040E94E90370F368
:10085000959FC1F3950F50E0551F629FF001729F65
:10086000BB27F00DB11D639FAA27F00DB11DAA1F74
:10087000649F6627B00DA11D661F829F2227B00DC1
:10088000A11D621F739FB00DA11D621F839FA00D4C
:10089000611D221F749F3327A00D611D231F849F9C
:1008A000600D211D822F762F6A2F11249F575040F3
:1008B0009AF0F1F088234AF0EE0FFF1FBB1F661F6E
:1008C000771F881F91505040A9F79E3F510580F037
:1008D0000C94C1030C940C045F3FE4F3983ED4F3F2
:1008E000869577956795B795F795E7959F5FC1F7DB
:1008F000FE2B880F911D9695879597F90895B0E086
:10090000A0E0E5E8F4E00C947F07AE014B5F5F4F99
:10091000FA0161917191AF018091940190919501DB
:100920000E94C004E2E00C949B070F931F93CF93A7
:10093000DF93E0919401F09195012381EC0110E0A7
:1009400000E021FD08C00FEF1FEF14C00995892BAF
:1009500011F00FEF1FEF8991609194017091950153
:10096000DB011896ED91FC918111F0CF8AE0099599
:10097000892B49F7C801DF91CF911F910F910895FD
:10098000ABE0B0E0E6ECF4E00C946F077C013B01D7
:100990008A01FC0117821682838181FFC8C1CE01C2
:1009A00001965C01F7019381F30193FD859193FF1B
:1009B00081913F01882309F453C1853239F493FDB5
:1009C000859193FF81913F01853229F4B70190E031
:1009D0000E94B006E7CF912C212C312CFFE1F315BA
:1009E00038F08B3211F190F4803209F1833229F121
:1009F00037FC3CC020ED280F2A3050F536FE20C0D1
:100A00008AE0989E200D1124922E06C08D3291F01E
:100A1000803371F7689430F8F30193FD859193FF6B
:100A200081913F018111DACF21C0689431F8689437
:100A300032F8F2CF689433F8EFCF689434F8ECCF03
:100A4000EAE02E9E200D1124222E689435F8E4CF82
:100A50008E3229F436FC04C1689436F8DDCF8C362A
:100A600019F4689437F8D8CF8836B1F2982F9F7D63
:100A700095549330E0F08336A1F18337C1F183358B
:100A800009F063C02801F2E04F0E511CF801C0804C
:100A9000D180692D70E036FC02C06FEF7FEFC60198
:100AA0000E949A064C01689437F882010AC00C5FD4
:100AB0001F4FFFE3F98388248394912C6501E89408
:100AC00037F833FE2DC0522C8114910471F5552056
:100AD00009F468CFB70180E290E00E94B0065A9412
:100AE000F6CFF801808189830E5F1F4FE4CF280184
:100AF000F2E04F0E511CF801C080D180692D70E0EA
:100B000036FC02C06FEF7FEFC6010E94A5064C01C4
:100B10008201D5CFB70180E290E00E94B0062A940E
:100B20002814190409F0B0F7CECFF60137FC8591EF
:100B300037FE81916F01B70190E00E94B00651101D
:100B40005A94F1E08F1A9108BFCF843619F0893694
:100B500009F077C0F80137FE6BC060817181828136
:100B600093810C5F1F4FF32DFF763F2E97FF09C037
:100B700090958095709561957F4F8F4F9F4F6894AA
:100B800037F82AE030E0A5010E94E006C82ECA1816
:100B90008C2C432C36FE0CC0E89440F8C91440F469
:100BA00034FE05C032FC03C0F32DFE7E4F2E892C8F
:100BB00044FE95C0FE01EC0DF11D8081803309F0EB
:100BC00087C0242D297E422E842D8870582E43FC08
:100BD00095C040FE8FC09C2C821418F42C0C922CD3
:100BE000981844FE91C0B70180E390E00E94B006DF
:100BF00042FE09C088E790E041FE02C088E590E02F
:100C0000B7010E94B006C91408F48AC0CA94D12C56
:100C10009FEFC91AD90ACA0CDB1CF60182916F0139
:100C2000B70190E00E94B006AC14BD04B1F74FCFFD
:100C300060817181072E000C880B990B0E5F1F4F8E
:100C400092CFD32CE894D4F82AE030E0853739F1FC
:100C5000232D297FD22E8F3601F148F48835A9F053
:100C6000F701868197812B96E2E10C948B07803700
:100C700049F08837A9F7D4FE02C06894D2F820E181
:100C800030E00DC06894D4F8F6CF34FE03C0822F54
:100C90008660D82E20E132E002C028E030E0F80182
:100CA000D7FE0FC060817181828193810C5F1F4FDD
:100CB000A5010E94E006C82ECA183D2CE89437F81A
:100CC00067CF6081718190E080E00E5F1F4FF0CFB1
:100CD00042FC02C0839478CF8394839475CF842D93
:100CE000867809F471CFF6CFB70180E290E00E94D8
:100CF000B00683948214C0F3512C73CF522C581831
:100D0000821408F46ECFF8CF842D867809F47BCF57
:100D10008BE241FE80E247FC8DE2B70190E071CFAB
:100D2000B70180E390E00E94B0069A946CCF8FEFF9
:100D30009FEF99CFFC010590615070400110D8F7EA
:100D4000809590958E0F9F1F0895FC016150704013
:100D500001900110D8F7809590958E0F9F1F0895F0
:100D60000F931F93CF93DF93182F092FEB018B81E4
:100D700081FD09C01FEF0FEF812F902FDF91CF91E1
:100D80001F910F91089582FF14C02E813F818C81A5
:100D90009D81281739073CF4E881F981CF0101963C
:100DA0009983888310838E819F8101969F838E8390
:100DB000E3CFE885F985812F0995892BA1F3DACF57
:100DC000FA01AA27283051F1203181F1E8946F937C
:100DD0006E7F6E5F7F4F8F4F9F4FAF4FB1E03ED022
:100DE000B4E03CD0670F781F891F9A1FA11D680FC0
:100DF000791F8A1F911DA11D6A0F711D811D911DF3
:100E0000A11D20D009F468943F912AE0269F112467
:100E10003019305D3193DEF6CF010895462F4770CB
:100E2000405D4193B3E00FD0C9F7F6CF462F4F7026
:100E3000405D4A3318F0495D31FD4052419302D084
:100E4000A9F7EACFB4E0A69597958795779567952A
:100E5000BA95C9F700976105710508959B01AC012A
:100E60000A2E06945795479537952795BA95C9F751
:100E7000620F731F841F951FA01D0895F999FECF5F
:100E800092BD81BDF89A992780B50895A8E1B0E098
:100E900042E050E00C946107262FF999FECF1FBA6B
:100EA00092BD81BD20BD0FB6F894FA9AF99A0FBE93
:100EB000019608950E944C07272F0C944D07DC01E2
:100EC000CB01FC01F999FECF06C0F2BDE1BDF89A55
:100ED000319600B40D9241505040B8F708952F92CA
:100EE0003F924F925F926F927F928F929F92AF92BA
:100EF000BF92CF92DF92EF92FF920F931F93CF9307
:100F0000DF93CDB7DEB7CA1BDB0B0FB6F894DEBF9D
:100F10000FBECDBF09942A88398848885F846E84C3
:100F20007D848C849B84AA84B984C884DF80EE800D
:100F3000FD800C811B81AA81B981CE0FD11D0FB616
:100F4000F894DEBF0FBECDBFED010895F894FFCF3A
:100F500000000002000000005300000000006C6F61
:100F60006F702025750A006469762025750A006D6A
:100F7000756C2025750A00666C6F61742025750AF2
:100F80000064656C61792025750A006F7630202534
:100F90007520636D31202575206F763220257520F0
:100FA000696E743020257520706320257520746368
:100FB0006E74302025752074636E74322025750A96
:100FC0000065652025782025782025780A00646F43
:040FD0006E6500004A
:00000001FF
