:100000000C9434000C943E000C943E000C943E0082
:100010000C943E000C943E000C943E000C943E0068
:100020000C943E000C943E000C943E000C943E0058
:100030000C943E000C943E000C943E000C943E0048
:100040000C943E000C943E000C943E000C943E0038
:100050000C943E000C943E000C943E000C943E0028
:100060000C943E000C943E0011241FBECFEFD8E04C
:10007000DEBFCDBF0E9440000C9471000C940000C4
:1000800088E68AB98EE084B98FE387BD8FEB88BD9F
:1000900083EB84BD83E085BD87EE93E0909387007A
:1000A000809386008AEF90E0909389008093880087
:1000B0008EEE92E090938B0080938A0082EB809387
:1000C000800082E18093810083E68093B30081E326
:1000D0008093B40082E58093B00082E08093B10009
:0600E000FFCFF894FFCFF2
:00000001FF
